:020000040800F2
:10000000C80600206D01000875010008770100088E
:10001000790100087B0100087D0100080000000054
:100020000000000000000000000000007F01000848
:10003000810100080000000083010008850100081C
:100040008701000887010008870100088701000870
:100050008701000887010008870100088701000860
:100060008701000887010008870100088701000850
:100070008701000887010008870100088701000840
:100080008701000887010008870100088701000830
:100090008701000887010008870100088701000820
:1000A0008701000887010008870100088701000810
:1000B0008701000887010008870100088701000800
:1000C00087010008870100088701000887010008F0
:1000D00087010008870100088701000887010008E0
:1000E00087010008870100088701000800F002F876
:1000F00000F02CF80AA090E8000C82448344AAF196
:100100000107DA4501D100F021F8AFF2090EBAE893
:100110000F0013F0010F18BFFB1A43F0010318473B
:10012000D4050000E405000000230024002500267B
:10013000103A28BF78C1FBD8520728BF30C148BF4A
:100140000B6070471FB51FBD10B510BD00F0BAF8A9
:100150001146FFF7F7FF00F0F5F900F0D8F803B407
:10016000FFF7F2FF03BC00F0DFF80000094880470A
:1001700009480047FEE7FEE7FEE7FEE7FEE7FEE789
:10018000FEE7FEE7FEE7FEE704480549054A064BA1
:100190007047000065040008ED000008C80000205A
:1001A000C8060020C8020020C80200204FF000024C
:1001B0000429C0F0128010F0030C00F05E80CCF136
:1001C000040CBCF1020F18BF00F8012BA8BF20F8E7
:1001D000022BA1EB0C0100F050B85FEAC17C24BFF8
:1001E00000F8012B00F8012B48BF00F8012B7047E5
:1001F0004FF0013C50F8042B51F8043B9A4221D1B6
:10020000A2EB0C03934313EACC1317D150F8042B41
:1002100051F8043B9A4215D1A2EB0C03934313EA25
:10022000CC130BD150F8042B51F8043B9A4209D15E
:10023000A2EB0C03934313EACC13DBD04FF0000086
:10024000704700BFD01A01BAB1FA81F101F018016C
:1002500022FA01F0CB40DBB2C0B2C01AC1F12001DA
:100260002CFA01F3D11A914311EAC311E6D1704778
:100270007047704770474FF0000200B51346944630
:100280009646203922BFA0E80C50A0E80C50B1F1EE
:100290002001BFF4F7AF090728BFA0E80C5048BF02
:1002A0000CC05DF804EB890028BF40F8042B08BFA0
:1002B000704748BF20F8022B11F0804F18BF00F89C
:1002C000012B7047754600F02BF8AE4605006946D5
:1002D000534620F00700854618B020B5FFF754FFBD
:1002E000BDE820404FF000064FF000074FF0000837
:1002F0004FF0000BAC46ACE8C009ACE8C009ACE874
:10030000C009ACE8C00921F007018D46704710B55F
:100310000446AFF300802046BDE81040FFF71FBF42
:10032000004870470000002001491820ABBEFEE7DE
:10033000260002007047000080B500F001F880BD83
:1003400084B000200390029041F20001C4F2020147
:10035000086840F480300860FFE741F20000C4F212
:100360000200006800F4003002900398013003900E
:10037000FFE702990020019039B9FFE70398B0F533
:10038000A06018BF01200190FFE70198C007002876
:10039000E3D1FFE741F20000C4F2020000688003ED
:1003A000002803D5FFE70120029002E00020029020
:1003B000FFE70298012851D1FFE742F20001C4F2A1
:1003C0000201086840F010000860086820F007008B
:1003D0000860086840F00200086041F20401C4F2BD
:1003E000020100910868086008680860086840F425
:1003F00080600860086820F47C100860086840F499
:10040000E810086041F20001C4F20201086840F0FF
:1004100080700860FFE741F20000C4F2020000684B
:100420008001002801D4FFE7F5E741F20401C4F29E
:100430000201086820F003000860086840F002002C
:100440000860FFE741F20400C4F20200006800F017
:100450000C00082801D0FFE7F4E700E0FFE704B054
:100460007047000080B541F20002C4F20202106839
:1004700040F00100106041F20401C4F2020108687A
:100480000023CFF6FF031840086010684FF6FF7393
:10049000CFF6F66318401060106820F480201060DA
:1004A000086820F4FE00086041F20801C4F202016D
:1004B0004FF41F000860FFF73FFF4EF60851CEF2E1
:1004C00000014FF00060086080BD000082B0002095
:1004D0000190FFE70198632813DCFFE700200090FC
:1004E000FFE7009842F20F71884205DCFFE7FFE763
:1004F000009801300090F4E7FFE701980130019087
:10050000E8E702B07047000081B00090FFE7009874
:100510000078A8B1FFE7FFE743F60000C4F201004E
:1005200000880006002801D4FFE7F5E70098411C89
:100530000091007843F60401C4F201010880E6E767
:1005400001B0704780B586B00020059041F21801D7
:10055000C4F2020144F21400086040F60401C4F23F
:100560000101086820F47F600860086840F49E601C
:10057000086041F20401C4F20101086820F470002F
:100580000860086840F44010086043F60801C4F2AF
:10059000010141F64C50088043F60C01C4F2010100
:1005A000088842F20C021043088041F20C01C4F2A8
:1005B0000101086840F400500860FFE700F066F8A9
:1005C00040F26000C2F2000040F2ED61C0F60001AE
:1005D000FFF70EFE80BBFFE740F26000C2F20000B2
:1005E000FFF792FF00200490FFE70498042815DC31
:1005F000FFE741F20C01C4F201010391086840F4E5
:1006000000500860FFF762FF0399086820F400506B
:100610000860FFE7049801300490E6E740F26000CC
:10062000C2F200006421FFF7C1FD40F2C401C2F232
:1006300000010020086028E040F26000C2F20000E3
:1006400040F2E661C0F60001FFF7D2FDE0B9FFE736
:1006500040F26000C2F200000190FFF755FF0198E0
:1006600041F20C02C4F20102116821F40051116040
:1006700040F2C401C2F2000102910968FFF796FD41
:10068000029900200860FFE7FFE797E780B582B096
:1006900000F012F88DF807009DF8070040F2C4033F
:1006A000C2F200031A68511C196040F26001C2F2E4
:1006B0000001885402B080BD81B0FFE743F600001E
:1006C000C4F2010000888006002801D4FFE7F5E7A6
:1006D00043F60400C4F2010000888DF803009DF881
:1006E000030001B070476C65646F6666006C6564FA
:1006F0006F6E00000407000800000020C80600001C
:0407000028010008C4
:040000050800016D81
:00000001FF
