:0A0C5D0048656C6C6F20545453007E
:030C790001187EE1
:100AE0007508077509E8780A7C007D007BFF7A0CA1
:100AF000795D7E007F0A1208D0AF18120C7D120CAF
:100B000016E4FDFC7F03FE120C467B007A00790A96
:100B1000120BD07D017C007F057E00120C467FD039
:0E0B20007E07120BAB7FE87E0712099A80FE5B
:090C6700D287D286C287C2862220
:090C7000C286C287D286D2872217
:0D0C2F00EFC454F0FA120C67AF19120B69F4
:0A0C3C00C286D287D2862087FD22EF
:030C7D008F1922AA
:0D0B9E00440CFF120B69120C3C7F017E001D
:100BAB00D3EF9400EE648094804019758901758CA5
:100BBB00FC758A66D28C308DFDC28DC28CEF1F7096
:050BCB00DF1E80DC22AA
:020B6900A907DA
:100B6B00E4FDFCC286AF057E007480A807088006F2
:100B7B00CEA2E713CE13D8F8FFE9FBEF5B6003D3EC
:100B8B008001C39287D2860DBD00010CED64084C29
:020B9B0070D117
:010B9D002235
:100BF500EF54F0F514120C2FE514120B9EE5144476
:100C050008120BA0EA120B9EEA4408120BA0020C74
:010C1500706E
:100B2E007D0AAE14AF157C0012090F7C007D0A12EF
:060B3E00090FED2430FF59
:100B4400EF54F0F517120C2FE517440D120BA0E526
:100B5400174409120BA0EA440D120BA0EA4409122F
:050B64000BA0020C7063
:100BD0008B148A158916AB14AA15A9161208F6608B
:100BE000130516E5167002051514F91208F6FF1222
:050BF0000B4480E2222D
:100C4600ED4C7005EF24808003EF24C0F582E43E6E
:070C5600F583AF82020BF5EC
:100C16007F02120BF57F28120BF57F0C120BF57F66
:090C260006120BF57F01020BF52B
:10099A008E148F15D3E5159409E51464809480505C
:1009AA0007EF2430FF120B44D3E5159409E51464CC
:1009BA008094804025E5159464E514648094805001
:1009CA0019AE14AF157C007D0A12090FEF2430FF0F
:1009DA00120B44AE14AF15120B39C3E5159464E536
:1009EA0014648094804028E51594E8E514648094A2
:1009FA0083501CAE14AF157C007D6412090FEF24DE
:100A0A0030FF120B44120B2EAE14AF15120B39C362
:100A1A00E51594E8E51464809483402DE515941057
:100A2A00E514648094A75021AE14AF157C037DE8C9
:100A3A0012090FEF2430FF120B447D64120B30129F
:0A0A4A000B2EAE14AF15120B39226B
:03000000020A549D
:0C0A5400787FE4F6D8FD758119020A9B3A
:10080000E709F608DFFA8046E709F208DFFA803EDA
:1008100088828C83E709F0A3DFFA8032E309F608C7
:10082000DFFA8078E309F208DFFA807088828C832F
:10083000E309F0A3DFFA806489828A83E0A3F608E3
:10084000DFFA805889828A83E0A3F208DFFA804CBD
:1008500080D280FA80C680D4806980F28033801094
:1008600080A680EA809A80A880DA80E280CA8033FD
:1008700089828A83ECFAE493A3C8C582C8CCC58375
:10088000CCF0A3C8C582C8CCC583CCDFE9DEE78045
:100890000D89828A83E493A3F608DFF9ECFAA9F0C4
:1008A000EDFB2289828A83ECFAE0A3C8C582C8CC1A
:1008B000C583CCF0A3C8C582C8CCC583CCDFEADE33
:1008C000E880DB89828A83E493A3F208DFF980CC95
:1008D00088F0EF60010E4E60C388F0ED2402B4048E
:1008E0000050B9F582EB2402B4040050AF23234535
:0608F00082239008507302
:1008F600BB010689828A83E0225002E722BBFE0200
:09090600E32289828A83E4932232
:10090F00C2D5EC30E709B2D5E4C39DFDE49CFCEE03
:10091F0030E715B2D5E4C39FFFE49EFE120945C32D
:10092F00E49DFDE49CFC800312094530D507C3E428
:06093F009FFFE49EFE2272
:100A6000020AE0E493A3F8E493A34003F68001F2C2
:100A700008DFF48029E493A3F85407240CC8C33397
:100A8000C4540F4420C8834004F456800146F6DF66
:100A9000E4800B0102040810204080900C79E47E71
:100AA000019360BCA3FF543F30E509541FFEE4935B
:100AB000A360010ECF54C025E060A840B8E493A322
:100AC000FAE493A3F8E493A3C8C582C8CAC583CA4D
:100AD000F0A3C8C582C8CAC583CADFE9DEE780BE05
:010C7C000077
:10094500BC000BBE0029EF8DF084FFADF022E4CC96
:10095500F875F008EF2FFFEE33FEEC33FCEE9DEC5F
:10096500984005FCEE9DFE0FD5F0E9E4CEFD22EDA5
:10097500F8F5F0EE8420D21CFEADF075F008EF2FEF
:10098500FFED33FD4007985006D5F0F222C398FDE0
:050995000FD5F0EA227D
:00000001FF
